S011000047505F4D61737465722E73726563B1
S11300000C942A000C943F000C943F000C943F0085
S11300100C943F000C943F000C943F000C943F0060
S11300200C943F000C943F000C943F000C943F0050
S11300300C943F000C943F000C943F000C943F0040
S11300400C943F000C943F000C943F000C943F0030
S11300500C943F0011241FBECFE5D8E0DEBFCDBF16
S113006010E0A0E6B0E0E2E4F6E002C005900D92F4
S1130070A23BB107D9F70E941A020C941F030C94F7
S11300800000843008F072C0683008F06FC041305E
S1130090A1F5813089F028F08230C9F0833011F164
S11300A008952AB381E090E002C0880F991F6A95F1
S11300B0E2F7822B8ABB089527B381E090E002C067
S11300C0880F991F6A95E2F7822B87BB089524B3A2
S11300D081E090E002C0880F991F6A95E2F7822BB5
S11300E084BB089521B381E090E002C0880F991F7A
S11300F06A95E2F7822B81BB0895411137C08130A4
S113010091F028F08230D9F0833029F108952AB390
S113011081E090E002C0880F991F6A95E2F780950C
S113012082238ABB089527B381E090E002C0880F40
S1130130991F6A95E2F78095822387BB089524B3BB
S113014081E090E002C0880F991F6A95E2F78095DC
S1130150822384BB089521B381E090E002C0880F1C
S1130160991F6A95E2F78095822381BB08958430B4
S113017008F072C0683008F06FC04130A1F58130DA
S113018089F028F08230C9F0833011F108952BB33F
S113019081E090E002C0880F991F6A95E2F7822BF4
S11301A08BBB089528B381E090E002C0880F991FAB
S11301B06A95E2F7822B88BB089525B381E090E02D
S11301C002C0880F991F6A95E2F7822B85BB0895B8
S11301D022B381E090E002C0880F991F6A95E2F78C
S11301E0822B82BB0895411137C0813091F028F0F1
S11301F08230D9F0833029F108952BB381E090E067
S113020002C0880F991F6A95E2F7809582238BBB01
S1130210089528B381E090E002C0880F991F6A9581
S1130220E2F78095822388BB089525B381E090E0AE
S113023002C0880F991F6A95E2F78095822385BBD7
S1130240089522B381E090E002C0880F991F6A9557
S1130250E2F78095822382BB0895843078F481305C
S113026041F028F0823039F0833039F008956ABBC8
S1130270089567BB089564BB089561BB08958430F5
S113028078F4813041F028F0823039F0833039F04D
S113029008956BBB089568BB089565BB089562BB60
S11302A00895CF93C82F40E061E081E00E94B70039
S11302B040E062E081E00E94B70041E063E081E059
S11302C00E94B7008FE19EE40197F1F700C000009F
S11302D06C2F607F80E00E943F0140E063E081E09A
S11302E00E94B7008FE19EE40197F1F700C000007F
S11302F041E063E081E00E94B7008FE19EE4019752
S1130300F1F700C000006C2F6295607F80E00E94CE
S11303103F0140E063E081E00E94B7008FE19EE48A
S11303200197F1F700C00000CF9108952FEF81EEFF
S113033094E0215080409040E1F700C0000083E346
S11303400E94510182E30E94510188E20E945101FE
S11303508CE00E94510181E00E94510186E00E94DC
S1130360510182E00E9451010895CF93C82F41E0CA
S113037061E081E00E94B70040E062E081E00E9419
S1130380B70041E063E081E00E94B7008FE19EE4A2
S11303900197F1F700C000006C2F607F80E00E949D
S11303A03F0140E063E081E00E94B7008FE19EE4FA
S11303B00197F1F700C0000041E063E081E00E9492
S11303C0B7006C2F6295607F80E00E943F018FE14F
S11303D09EE40197F1F700C0000040E063E081E093
S11303E00E94B7008FE19EE40197F1F700C000007E
S11303F0CF9108950F931F93CF938C01C0E003C056
S11304000E94B501CF5FF801EC0FF11D80818111CD
S1130410F7CFCF911F910F91089581E00E94510170
S11304208FE39FE10197F1F700C0000080E80E948C
S11304305101089540E060E083E00E94410041E002
S113044061E083E00E9441000E9406036FEF80E0B8
S11304500E942D0141E061E081E00E94410041E001
S113046062E081E00E94410041E063E081E00E949B
S113047041000E9496010E94E8020E94EF0241E0BE
S113048065E081E00E94410040E066E081E00E9476
S1130490410041E067E081E00E94410041E064E006
S11304A081E00E94410041E064E081E00E94B700E5
S11304B00E940D0280E690E00E94FA012FEF84E38F
S11304C09CE0215080409040E1F700C000000E9471
S11304D01B03C82F0E940D022FEF84E39CE02150E0
S11304E080409040E1F700C000008BE690E00E945D
S11304F0FA018C2F0E94B5012FEF84E39CE0215078
S113050080409040E1F700C0000040E064E081E0FA
S11305100E94B7000E940D0286E790E00E94FA0153
S11305208C2F0E9402030E940D0280E890E00E943A
S1130530FA012FEF84E39CE0215080409040E1F7E2
S113054000C00000C13619F0C23621F006C00E9476
S1130550C002AECF0E94D402ABCF0E940D0285E848
S113056090E00E94FA018C2F0E94B5012FEF89E6DA
S113057098E1215080409040E1F700C0000098CFFE
S11305800E940D0295B388E0892785BB86E990E037
S11305900E94FA012FEF89E698E1215080409040B3
S11305A0E1F700C0000008950E940D0292B388E0B4
S11305B0892782BB84EA90E00E94FA012FEF89E642
S11305C098E1215080409040E1F700C00000089578
S11305D08DB180648DB98DB180618DB908958EB16E
S11305E08E7F8EB98DB18E7F8DB98DB18D7F8DB992
S11305F08DB18B7F8DB98DB1877F8DB98DB18F7D95
S11306008DB908958FB9779BFECF08958AB188601C
S11306108AB98AB180618AB98BB182608BB980B59D
S11306208F7780BD10BC82E689B98AB18B7F8AB985
S113063086E880BD08955F9BFECF8CB10895F89441
S1050640FFCFE6
S113064257616974696E672E2E2E00436F6D6D615A
S11306526E64203A20005265636569766564200001
S113066253656E740057726F6E6720436F6D6D61D0
S11306726E64202D20004C6564203120546F67671E
S11306826C6564004C6564203220546F67676C6546
S10506926400FE
S9030000FC
